:1000000086C095C094C093C092C091C08EC18FC06D
:100010008EC08DC08CC08BC08AC089C089C087C08B
:1000200086C085C084C083C082C02D6D697373692A
:100030006E6720636C6F636B2D0054656D702E20AE
:100040002020202020200030207365632E20726540
:100050006D61696E696E670031207365632E207271
:10006000656D61696E696E670032207365632E206D
:1000700072656D61696E696E670033207365632E0A
:100080002072656D61696E696E6700342073656307
:100090002E2072656D61696E696E6700352073652B
:1000A000632E2072656D61696E696E670020202085
:1000B0004C6F6164696E672E2E2E20202000416CEB
:1000C000667265646F2053746566616E6F002020F0
:1000D00020706F776572656420627920202000743B
:1000E000656D70657261747572612076312E3100B4
:1000F000202053656E736F72652064692020003084
:100100002000373500352000323500302000112422
:100110001FBECFE5D2E0DEBFCDBF10E0A0E6B0E06D
:1001200001C01D92A236B107E1F7AFD0E3C268CF9C
:100130001F920F920FB60F9211248F9384B1809368
:10014000600085B180936100369A8F910F900FBE49
:100150000F901F9018951ABA8FEF81BB90EE97BB46
:100160008FE886B997B984E89EE19BBD8ABD1DBC26
:100170001CBC88E08EBD80E189BF88E390E014D18B
:1001800080EF90E0F9D102D18FED90E0F5D180E2DF
:100190009EE424E630E0F9013197F1F70197D9F7B1
:1001A000ABD18EEC90E0E8D1F1D08EEB90E0E4D1D1
:1001B00080E29EE424E630E0F9013197F1F70197FF
:1001C000D9F79AD18DEA90E0D7D1E0D08CE990E0D0
:1001D000D3D180E197E224E630E0F9013197F1F7DD
:1001E0000197D9F7D3D08BE890E0C6D180E197E2B0
:1001F00024E630E0F9013197F1F70197D9F7C6D03D
:100200008AE790E0B9D180E197E224E630E0F90195
:100210003197F1F70197D9F7B9D089E690E0ACD1E1
:1002200080E197E224E630E0F9013197F1F7019798
:10023000D9F7ACD088E590E09FD180E197E224E641
:1002400030E0F9013197F1F70197D9F79FD087E4B2
:1002500090E092D180ED97E024E630E0F90131970B
:10026000F1F70197D9F748D18AE390E085D18FED76
:100270007FD083E47DD08AD08AE290E07DD1369A27
:100280008EB584608EBD7894089565DFFFCFFF92B0
:100290000F931F93CF93DF938091610090E0A1D1E2
:1002A000EC018091610090E0ABD18C018091610004
:1002B00090E0B4D1F82E80E866E07CD1209719F068
:1002C0008C2F36D101C080E253D00115110519F0F1
:1002D000802F2ED101C080E24BD08F2D29D148D064
:1002E0008EE246D080916000803469F0813418F449
:1002F000882331F011C0803849F0803C69F409C08E
:100300008BE091E00BC088E091E008C085E091E0CF
:1003100005C082E091E002C08FEF90E02DD1DF9127
:10032000CF911F910F91FF9008951F920F920FB6DA
:100330000F9211242F933F934F935F936F937F936B
:100340008F939F93AF93BF93EF93FF93A0DFFF91A2
:10035000EF91BF91AF919F918F917F916F915F913D
:100360004F913F912F910F900FBE0F901F901895B6
:1003700090E298BB82BBC79A82E08A95F1F788B376
:10038000805888BB82E48A95F1F7089518BA80EC0A
:1003900082BBC79A82E08A95F1F788B3805888BB00
:1003A00085E88A95F1F70895FC0180E49CE90197BE
:1003B000F1F720E322BBC79A32E0832F8A95F1F749
:1003C00088B3805888BB88E893E10197F1F722BB96
:1003D000C79A832F8A95F1F788B3805888BB9CE829
:1003E000892F8A95F1F722BBC79A832F8A95F1F757
:1003F00088B3805888BB9A95F1F7E033F10521F076
:10040000E833F10581F402C022BB0FC088E382BB50
:100410001082808180688083832F8A95F1F78081A4
:10042000805880830AC088E382BB18BAC79A832F9A
:100430008A95F1F788B3805888BB85E88A95F1F7EB
:1004400028E022BB18BAC79A92E0892F8A95F1F763
:1004500088B3805888BB45E8842F8A95F1F722BB82
:1004600018BAC79A892F8A95F1F788B3805888BB44
:10047000842F8A95F1F784E182BB18BAC79A892F35
:100480008A95F1F788B3805888BB842F8A95F1F755
:1004900081E082BB18BAC79A892F8A95F1F788B391
:1004A000805888BB20EA3FE0F9013197F1F786E0F8
:1004B00082BB18BAC79A892F8A95F1F788B38058FA
:1004C00088BB842F8A95F1F792BB18BAC79A892FF7
:1004D0008A95F1F788B3805888BBF9013197F1F715
:1004E0008CE082BB18BAC79A9A95F1F788B3805806
:1004F00088BB4A95F1F7089581E082BB18BAC79A84
:1005000092E0892F8A95F1F788B3805888BB20EA5A
:100510003FE0F9013197F1F792BB18BAC79A9A9563
:10052000F1F788B3805888BBC9010197F1F70895A6
:100530008A3010F080E30895805D08950F931F9333
:10054000CF93DF938C01C0E0D0E00BC0CF30D1055A
:1005500034F0CF30D10519F40BDF18DF01C008DF0C
:100560002196F801EC0FFD1F8081882379F7DF9138
:10057000CF911F910F9108950F931F93CF93DF9306
:100580008C01C0E0D0E00BC0CF30D10534F0CF30CB
:10059000D10519F4EDDEFADE01C0EADE2196F8019C
:1005A000EC0FFD1F8491882379F7DF91CF911F9184
:1005B0000F910895282F90E0860F911D8F779070EE
:1005C000803591056CF418BA620F62BBC79A82E05D
:1005D0008A95F1F788B3805888BB85E88A95F1F74A
:1005E0000895843691051CF460E070E007C08456DD
:1005F000904064E670E06AD06F5F7F4FCB01089552
:100600008A3091051CF460E070E006C00A976AE049
:1006100070E05CD06F5F7F4FCB010895FC018436A2
:10062000910544F08456904064E670E04FD06F5FCF
:100630007F4F0AC08A3091052CF440E050E060E022
:1006400070E00BC060E070E0CF0140E050E04F5F31
:100650005F4F0A978A309105D4F786EF9FEF489F46
:100660009001499F300D589F300D11248CE99FEF68
:10067000AC01649FC001659F900D749F900D112483
:10068000280F391F2E0F3F1FC901089518BA88B3CC
:1006900088BB88E182BBC79A82E08A95F1F788B36C
:1006A000805888BB85E88A95F1F7089518BA88B311
:1006B00088BB8CE182BBC79A82E08A95F1F788B348
:1006C000805888BB85E88A95F1F70895AA1BBB1B63
:1006D00051E107C0AA1FBB1FA617B70710F0A61B42
:1006E000B70B881F991F5A95A9F780959095BC0163
:0806F000CD010895F894FFCF3D
:00000001FF
